:020000040800F2
:10000000A007002045010008EB240008CF1C0008D1
:10001000E924000819040008012B00080000000072
:100020000000000000000000000000000F25000894
:100030001B040008000000000D2500081125000821
:100040005F0100085F0100085F0100085F01000810
:100050005F0100085F0100081D0400085F0100083F
:100060005F0100085F0100085F0100085F010008F0
:100070005F0100085F0100085F0100085F010008E0
:100080005F0100085F0100085F0100085F010008D0
:100090005F0100085F0100085F0100085F010008C0
:1000A0005F0100085F0100085F0100085F010008B0
:1000B0005F0100085F0100085F0100085F010008A0
:1000C0005F0100085F0100085F0100085F01000890
:1000D0005F010008E12A00085F0100085F010008D5
:1000E0005F0100085F0100085F0100085F01000870
:1000F0005F0100085F0100085F0100085F01000860
:100100005F0100085F0100085F0100085F0100084F
:100110005F0100085F010008AD2500085F010008CD
:100120005F0100085F0100085F0100085F0100082F
:10013000DFF80CD000F05EF9004800472D2B0008D6
:10014000A00700200648804706480047FEE7FEE774
:10015000FEE7FEE7FEE7FEE7FEE7FEE7FEE7FEE777
:10016000652500083101000840EA01039B0703D020
:1001700009E008C9121F08C0042AFAD203E011F8E6
:10018000013B00F8013B521EF9D27047D2B201E0A8
:1001900000F8012B491EFBD270470022F6E710B58C
:1001A00013460A4604461946FFF7F0FF204610BDE5
:1001B000F0B480EA0102D40F4200B2EB410F02D248
:1001C0000246084611464A0042D0C30DDDB2C1F3D3
:1001D000C752AD1A202D35DAC1F3160141F40002E1
:1001E00004B15242C5F1200602FA06F12A41104438
:1001F000B3EBD05F23D0C4B1012DA0EBC35009DC19
:10020000F0BC4FF0004202EAC352DBB200F500003E
:1002100000F0C1B8400000F1807000EBC350A0F1C5
:10022000807040EAD170490009E0490841EAC07194
:10023000A0EBC35000F50000400800EBC350F0BC39
:1002400000F0A0B86142012202EB4101001BF6E779
:10025000F0BC704781F00041AAE780F00040A7E7BA
:1002600080EA010210B502F00043400022D04A00AB
:100270001FD0010E01EB1261C0F35600C2F356020B
:1002800040F4000042F40002A0FB022000047F3989
:10029000140400D0401C50EA124001D44000491E12
:1002A000C2B20C0604EBD010401C4008802A02D0D9
:1002B00003E0002010BD20F00100002900DA00203A
:1002C000184310BD30B480EA010202F0004530F05E
:1002D000004221F0004013D090B1C30DD40DC2F301
:1002E0001601C0F31600E41A41F4000140F40002C4
:1002F0007D34914201D3641C00E04900002C02DAF5
:1003000030BC002070474FF400000023914201D31D
:10031000891A034340084FEA4101F7D151B1914294
:1003200002D14FF0004105E002D24FF0010101E09F
:100330006FF0010103EBC450284430BC00F022B838
:10034000C10F80EAE0700844CA079623002100F03C
:1003500022B896230022114600F01DB820F000407C
:10036000C10DC0F3160040F400007F2901DA00201F
:100370007047962903DCC1F19601C8407047963951
:10038000884070470029A8BF7047401C490008BF3B
:1003900020F00100704710B4B0FA80FC00FA0CF0B5
:1003A00050EA010404BF10BC704749B1CCF12004ED
:1003B00021FA04F411FA0CF118BF0121214308437A
:1003C000A3EB0C01CB1D4FEA00614FEA102042BFA6
:1003D000002010BC704700EBC35010440029A4BF9C
:1003E00010BC7047401C490008BF20F0010010BC41
:1003F00070470000064C074D06E0E06840F001033E
:1004000094E8070098471034AC42F6D3FFF794FE07
:10041000942E0008B42E0008FEE7704705480168D6
:10042000C90706D0044A012111700160084600F096
:1004300035B97047140401400C0000204FF480616E
:10044000014800F021BA0000000C01402DE9F04104
:1004500000271A4DDFF868803C464FF40066012201
:100460003146284600F015FA0C2000F0F1F8002281
:100470003146284600F00DFAFFF7E0FF0028FBD0D8
:1004800002F0A6FCFFF7DAFF0128FBD00D4801F0CF
:1004900090F800F01BF8FFF75CFF4146FFF712FFF2
:1004A00001463846FFF784FE641C0746052CD6DB60
:1004B000BDE8F0410449FFF705BF0000000C014012
:1004C00000006842080300200000A040084810B562
:1004D00000684FF47A71484306490968496A0C1864
:1004E000054900204862322000F0A0F8204610BDE7
:1004F0000000002008030020001000402DE9F05FFC
:1005000090F821100024022903D0042181630124E2
:1005100085E001680A6822F00E020A6001680A6834
:1005200022F001020A603F4E3E4FB215DFF8F4C0E0
:10053000DFF8F090DFF8ECA0DFF8E8B0DFF8E4E0F7
:100540000168783F13011502ACF1640CA9F1500960
:10055000AAF13C0AABF1280BAEF1140E4FF480184F
:10056000B14227D9B9420ED0614512D049451DD0BC
:10057000514518D0594518D0714501D1424615E072
:10058000294EB14201D1012210E0274E1436B1426A
:1005900001D110220AE0244E2836B14206D0224A68
:1005A0003C32914201D11A4600E02A461E49091FF9
:1005B0000A602BE0B94213D0614517D0494522D0DB
:1005C00051451DD059451DD0714501D142461AE013
:1005D000B14202D14FF0807215E0134EB14201D109
:1005E000012210E0104E1436B14201D110220AE06F
:1005F0000D4E2836B14206D00B4A3C32914201D111
:100600001A4600E02A46074980394A60012180F8ED
:100610002110002180F82010416B01B1884720464D
:10062000BDE8F09F800002400804024070B5044617
:1006300000F034F90546601C02D0044800780444F8
:1006400000F02CF9401BA042FAD370BD240000201A
:100650002DE9F0414FF0E0240546A76900F01EF9AE
:10066000064605EBC500C500BD420BD900F016F9E2
:10067000B042FBD00849781B0844A1698142FCD8EC
:10068000BDE8F0817D1BA069A842F9D900F006F908
:10069000B042F8D0F4E700004019010070470000B4
:1006A0002DE9F84FDFF8B8A100220AF1040B144637
:1006B00001274FF00F090BF1040E00BF0B6807FA7A
:1006C00004F52B40AB4274D1DFF898C14E68A6EB1D
:1006D0000C0866452BD00DDC032E34D005DC36B378
:1006E000012E19D0022E2FD11BE0112E16D0122E62
:1006F0002AD119E0B8F5881F19D006DCB8F5803F7B
:1007000015D0B8F5801F1FD111E0B8F5001F0ED02D
:10071000B8F5041F18D10AE0CA6815E0CA68121DAE
:1007200012E0CA6808320FE0CA680C320CE08A682E
:100730002AB1012A4FF0080203D0456104E00422E7
:1007400002E0056100E00022FF2B01D8064601E02F
:1007500000F104064FEA840501D9A5F12005D6F879
:1007600000C009FA05F82CEA080C02FA05F54CEA73
:10077000050CC6F800C04D68ED006AD53A4DAE696B
:1007800046F00106AE61AD6924F0030605F00105EF
:100790000095364D06EB050CDCF80850A6074FEA2D
:1007A000167809FA08F6B543314EB04202D1002658
:1007B0001AE04EE02F4EB04201D1012614E02E4E39
:1007C000B04201D102260FE02C4EB04201D10326E7
:1007D0000AE02B4EB04201D1042605E0294EB0427A
:1007E00001D1052600E0062606FA08F62E43CCF8CD
:1007F00008604D68DAF80060ED03554601D51E43E8
:1008000000E09E432E604D68AD0305D5DBF8006027
:100810001E43CBF8006004E0DBF800509D43CBF8AA
:1008200000504D68DEF80060ED02754601D51E43AC
:1008300000E09E432E604D68AD0205D5084D0C3595
:100840002E681E432E6004E0054E0C3635689D432D
:100850003560641C102CFFF431AFBDE8F88F000048
:10086000000401400000111000100240000001408F
:1008700000080140000C014000100140001401403C
:1008800000180140001C01408068084000D0012091
:1008900070470AB1016170470904FBE701488068AD
:1008A000704700002400002070B504001BD094F8AD
:1008B0003D00002520B984F83C50204600F038FA6D
:1008C000242084F83D002068016821F001010160C6
:1008D00000F0A8FB404A6168914201D83F4900E01E
:1008E0003F49884201D2012070BD3E492368B0FBD8
:1008F000F1F159606368934206D94FF496735943F6
:100900004FF47A73B1FBF3F12368491C19626168F3
:10091000914210D84900401EB0FBF1F2521CC2F3C4
:100920000B02042A01D2042022E0B0FBF1F0401CAB
:10093000C0F30B001CE0A368CBB301EBC10202EBD8
:100940000116421EB2FBF6F2521C42F4804212051E
:1009500036D06BB301EBC10202EB0111401EB0FBBC
:10096000F1F0401CC0F30B0040F4804040F4004024
:100970002168C861D4E90701084321680860D4E907
:100980000310084321688860D4E905010843216801
:10099000C8602068016841F00101016025642020E1
:1009A00084F83D00256384F83E50002070BD00E0CF
:1009B00008E001EB4106421EB2FBF6F2521CC6E70C
:1009C0000120D5E701EB4101401EB0FBF1F0401CD6
:1009D000C0F30B00CAE70000A086010080841E005F
:1009E00000093D0040420F002DE9F84F1F46904698
:1009F0008A460446DDF82890FFF750FF054694F834
:100A00003D0020287ED119230122784920460095F7
:100A100001F053FA0028F5D194F83C00012871D078
:100A2000012084F83C0020680168C90703D10168EF
:100A300041F0010101602068016821F4006101605A
:100A4000222084F83D00102084F83E000026266411
:100A5000C4F8248067856648E062608D20852B4657
:100A60004A465146204601F047F928B1206C84F8E7
:100A70003C60042850D073E0208D5E4F68B101289F
:100A800014D00228206801681ED041F48061016002
:100A900020684169806900909AE020684169816915
:100AA0000091016841F40071016091E020680168E3
:100AB00021F48061016072B620684169816900910A
:100AC000016841F400710AE041F40061016072B60E
:100AD0002068416981690091016821F480610160A9
:100AE00062B675E0032850D801280CD002284B4686
:100AF0004FF0000239462046009512D001F0DDF992
:100B000070BB13E070E02A464946204601F04AFADD
:100B100028B1206C202823D00120BDE8F88F206860
:100B20004BE001F0CAF9D8B972B61BE02068016841
:100B300021F48061016072B620680169606A421C1C
:100B400062620170208D401E2085608D401E608590
:100B50004B46002239462046009501F0AEF908B117
:100B60000320DAE72068016841F400710160206821
:100B70000169606A421C62620170208D401E2085FE
:100B8000608D401E608562B6C9E72A464946204608
:100B900001F008FA0028BCD120680169606A421C93
:100BA00062620170208D401E2085608D401E608530
:100BB00020684169C94349070AD40169606A421C37
:100BC00062620170208D401E2085608D401E608510
:100BD000208D002886D1202084F83D0084F83E60D6
:100BE00084F83C60002098E7022096E7020010009D
:100BF0000000FFFF040001002DE9F84F1F4690465A
:100C00008A460446DDF82890FFF748FE064694F829
:100C10003D0020287ED11923012243492046009619
:100C200001F04BF900287DD194F83C00012879D0DF
:100C3000012084F83C0020680168C90703D10168DD
:100C400041F0010101602068016821F40061016048
:100C5000212084F83D00102084F83E000025256402
:100C6000C4F8248067853148E062608D2085334672
:100C70004A465146204601F0AFF828B1206C84F86E
:100C80003C5004284CD00DE02068416980690090F8
:100C900030E032464946204601F0B5F928B1206CD3
:100CA000042838D00320BDE8F88F606A411C6162D7
:100CB000216800780861608D401E6085208D401E8F
:100CC00080B2208521684A69D24352070BD450B1C3
:100CD000606A421C626200780861608D401E608517
:100CE000208D401E208532464946204601F0BEF840
:100CF0000028D4D1208D0028CBD154F83D0B0168B9
:100D000041F400710160202004F81E09E577657741
:100D10000020C8E706E02068016841F40071016026
:100D20000120C0E70220BEE7020010000000FFFF24
:100D300010B586B0002100910191029103910068E5
:100D40000F4988421AD10F4CA06940F00800A061F9
:100D5000A069694600F008000490C02000901220AD
:100D60000190032003900848FFF79AFCE06940F4E3
:100D70000010E061E06900F40010049006B010BDBE
:100D80000054004000100240000C014002488168FD
:100D9000027811448160704724000020074810B594
:100DA000016841F010010160032000F073F8002099
:100DB00000F006F800F024F8002010BD00200240EA
:100DC00070B50D4D04464FF47A712878B1FBF0F000
:100DD0000A490968B1FBF0F000F0FCFA48B9102CA0
:100DE00007D200222146501E00F034F800206C602B
:100DF00070BD012070BD00002400002030000020E4
:100E00000C4808B5816941F001018161816901F0F7
:100E100001010091C16941F08051C161C06900F0D8
:100E2000805000900448416821F0E06141F0007179
:100E3000416008BD001002400000014000F01F02A8
:100E4000012191404009800000F1E020C0F800112C
:100E500070470000F0B40E4B1B680C46C3F302232E
:100E6000C3F10705042D00D90425191D072901D256
:100E7000002300E0DB1E012606FA05F1491E214091
:100E800099409E40761E16403143F0BC01F02EBBC7
:100E90000CED00E0064900F0070208684FF6FF037A
:100EA000184040EA0220034A1043086070470000DF
:100EB0000CED00E00000FA052DE9F047DFF8548161
:100EC00005460E46D8F8000000F00700B0420CD2EC
:100ED000D8F8001021F007013143C8F80010D8F805
:100EE000000000F00700B0426FD128684A4C81072B
:100EF00012D5400703D5606840F4E0606060287850
:100F0000000703D5606840F4605060606068A968BD
:100F100020F0F000084360602878C00744D068687B
:100F2000012816D02168022816D0890700294CDA3A
:100F3000616821F0030101436160FFF7AFFC69685C
:100F4000074641F2883001290ED00229814618D087
:100F500026E021688903E9E78901E7E7FFF79EFCBE
:100F6000C11B494501D918E081466068C0F3810082
:100F70000128F3D118E000BFFFF790FCC11B4945E1
:100F80000BD86068C0F381000228F5D10CE000BFE7
:100F9000FFF784FCC11B494502D90320BDE8F08757
:100FA000606810F00C0FF3D1D8F80010404601F043
:100FB0000701B1420BD9016821F0070131430160FB
:100FC000006800F00700B04201D00120E6E7287871
:100FD000400705D56068E96820F4E0600843606078
:100FE0002878000706D56068296920F4605040EA37
:100FF000C100606000F036F86168084AC1F303116F
:10100000515CC840064908600020FFF7D9FE002067
:10101000C4E7000000200240001002407A2E0008C1
:10102000300000200448054900684968044AC1F3BB
:101030000221515CC840704730000020001002407F
:101040008A2E00080448054900684968044AC1F32B
:10105000C221515CC840704730000020001002409F
:101060008A2E000812A185B00FC98DE80F0014A0C8
:10107000144A006804905168134801F00C03042BD3
:1010800010D0082B0ED1C1F38343C9031DF8030010
:101090000AD5516804AAC1F34041515C0A4A504341
:1010A000B0FBF1F005B0704708494843FAE700008B
:1010B00002030405060708090A0B0C0D0E0F101099
:1010C000010200000010024000127A0000093D00F9
:1010D0002DE9F84F04460078B94DC00748D068683C
:1010E000C0F38100012807D06868C0F3810002289E
:1010F00009D16868C00306D52868800338D56068C0
:1011000000286FD034E06068B0F5803F0BD010B19C
:10111000B0F5A02F11D0286820F48030286028680E
:1011200020F4802002E0286840F480302860606865
:1011300088B1FFF7B3FB064609E0286840F4802039
:101140002860F0E7FFF7AAFB801B642875D82868A1
:101150008003F7D50CE0FFF7A1FB064605E000BFD2
:10116000FFF79CFB801B6428F0D828688003F7D425
:101170002078944E80074FF001094FF000083BD5CE
:10118000686810F00C0F07D06868C0F3810002286F
:1011900009D16868C00306D42868800714D520697F
:1011A00001281FD110E02069B0B1C6F80090FFF708
:1011B00075FB074605E000BFFFF770FBC01B022868
:1011C000C4D828688007F7D52868616920F0F8003E
:1011D00040EAC10028600FE0C6F80080FFF75EFB20
:1011E000074606E0E9E000BFFFF758FBC01B0228F6
:1011F00023D828688007F7D4207800072CD57248B8
:10120000A169D9B1C0F80090FFF748FB074604E098
:10121000FFF744FBC01B02280FD8686A8007F7D588
:101220006A484FF4FA510068B0FBF1F0009000BF3B
:101230000098411E0091FAD20EE080E0C0F80080D4
:10124000FFF72CFB074604E0FFF728FBC01B022832
:1012500075D8686A8007F7D42078400760D5E869B8
:101260000027C00008D4E86940F08050E861E869D0
:10127000012700F08050009055480168C90513D43B
:101280000168834641F480710160FFF707FB8246E5
:1012900006E000BFFFF702FBA0EB0A0064284ED86F
:1012A000DBF80000C005F5D5E06801280AD008B1D8
:1012B000052813D0286A20F001002862286A20F04F
:1012C000040002E0286A40F001002862E06841F270
:1012D000883B98B1FFF7E2FA82460BE0286A40F0BB
:1012E00004002862EEE700BFFFF7D8FAA0EB0A017E
:1012F00059455AD8286A8007F6D50CE0FFF7CEFA90
:10130000824605E0FFF7CAFAA0EB0A0159454CD81E
:10131000286A8007F6D41FB1E86920F08050E861A0
:10132000E06988B36968C1F38101022945D00228C8
:10133000C6F8608004D0FFF7B1FA044638E034E024
:10134000FFF7ACFA074604E0FFF7A8FAC01B022833
:101350002BD828688001F7D4206AB0F5803F05D1EA
:101360006868A16820F4003008436860D4E9080187
:101370000843696821F4741108436860C6F86090F6
:10138000FFF78CFA044606E015E000BFFFF786FA87
:10139000001B022809D828688001F7D50BE000BFA0
:1013A000FFF77CFA001B022802D90320BDE8F88F62
:1013B00028688001F4D40020F8E70120F6E7000057
:1013C00000100240000042428004424230000020EF
:1013D0000070004010B5401EB0F1807F01D30120A5
:1013E00010BD4FF0E02460610F21601701F07EF81E
:1013F0000020A06107202061002010BD70477047C9
:1014000010B590F83C20012A25D0012280F83C201C
:10141000CA688C6822F4407222434C6822F48062CD
:1014200022430C6822F4006222430C6922F48052A9
:1014300022434C6922F4005222438C6922F48042F8
:10144000224322F40041026800232143516480F8C2
:101450003C30002010BD022010BD30B590F83C207B
:10146000012A20D0012280F83C20022380F83D3060
:1014700003685C6824F070045C6003685C680D6855
:101480002C435C6003689C6824F080049C600368C3
:101490009C6849680C439C6080F83D20002180F8DE
:1014A0003C10084630BD022030BD10B5040003D00A
:1014B00094F83D0010B107E0012010BD002084F831
:1014C0003C00204600F00CF8022084F83D00211D6D
:1014D000206801F071F8012084F83D00002010BD63
:1014E00008B5224A01682248914207D1816941F436
:1014F00000618161806900F4006014E0B1F1804F07
:101500000AD01C4A914210D1C16941F00201C16167
:10151000C06900F0020006E0C16941F00101C1614B
:10152000C06900F00100009008BD134A914207D144
:10153000C16941F00401C161C06900F00400F2E733
:101540000E4A9142F0D1C16941F01001C161C069F8
:10155000012200F01000009000213620FFF77AFCF5
:10156000BDE808403620FFF769BC0000002C0140B0
:10157000001002400004004000080040001000403D
:10158000022180F83D1001680A6842F001020A60F9
:10159000012180F83D10002070470168CA6842F0C0
:1015A0000102CA600068016841F001010160002089
:1015B0007047022180F83D1001680A6A41F2111358
:1015C0001A4207D10A6A9B101A4203D10A6822F014
:1015D00001020A60012180F83D100020704770B5BB
:1015E000044690F83C00012817D0012584F83C50AF
:1015F000022084F83D002068826822F0770222F4FD
:101600007F4282600868502837D00DDC202859D0EE
:1016100005DC88B3102841D151E0022070BD30288C
:1016200053D040283AD13FE060282ED070280BD00C
:10163000B0F5805F03D0B0F5005F2FD110E02068D7
:10164000816821F0070115E0CB68D1E9012120680C
:1016500001F003F82168886840F0770088601DE099
:10166000CB68D1E90121206800F0F7FF206881688C
:1016700041F48041816011E01EE0CA684968206839
:1016800001F0C0F85021206806E0CA684968206867
:1016900001F0C9F86021206800F0E9FF84F83D50AE
:1016A000002084F83C0070BDCA684968206801F0D9
:1016B000A9F840212068EFE700212068ECE710211D
:1016C0002068E9E720212068E6E730212068E3E789
:1016D000704770B50446006801694FF00005C943C2
:1016E000890715D4C168C943890711D4E91E01616E
:1016F00001202077206880698007204602D0FFF70C
:10170000E7FF04E000F00AF9204600F08CF92577A5
:1017100020680169C943490717D4C168C94349070B
:1017200013D46FF0040101610220207720688069E2
:1017300010F4407F204602D0FFF7CAFF04E000F01B
:10174000EDF8204600F06FF9257720680169C9435C
:10175000090716D4C168C943090712D46FF00801FC
:101760000161042020772068C0698007204602D0EC
:10177000FFF7AEFF04E000F0D1F8204600F053F987
:10178000257720680169C943C90617D4C168C943D0
:10179000C90613D46FF0100101610820207720687A
:1017A000C06910F4407F204602D0FFF791FF04E0AB
:1017B00000F0B4F8204600F036F92577206801697A
:1017C000C943C90708D1C168C943C90704D1891EE3
:1017D0000161204600F044F920680169C943090607
:1017E00009D4C168C943090605D46FF080010161BD
:1017F0002046FFF703FE20680169C943490609D462
:10180000C168C943490605D46FF040010161204613
:1018100000F036F920680169C94389060BD4C16814
:10182000C943890607D46FF0200101612046BDE855
:101830007040FFF7E4BD70BD30B585B00021009168
:1018400001910291039103682C482D4902222D4CED
:10185000834217D1886940F040008861886903920B
:1018600000F0400004904815CDE900026946264882
:10187000FEF716FF606820F0C00040F0E06040F026
:10188000C00039E02148B3F1804F13D0204DAB4266
:101890001AD18B6943F004038B61896901F004015B
:1018A00004914021CDE9001269460392FEF7F8FE4B
:1018B00005B030BD8B6943F004038B61896901F089
:1018C000040104910421EDE712488342F0D18869B4
:1018D00040F0200088618869694600F0200004908B
:1018E0005814CDE900020C480392FEF7D9FE606857
:1018F00040F0E06040F480506060D9E7002C014087
:1019000000100240000001400018014000080140A2
:10191000000400400008004000140140704770B50A
:10192000044690F83C000D4601280DD0012684F8AD
:101930003C60022084F83D0042B1042A18D0082AF5
:101940002AD00C2A4DD139E0022070BD206800F069
:1019500097FE2068816941F00801816120688169F2
:1019600021F004018161206881692A69114311E035
:10197000206800F0B5FE2068816941F40061816152
:101980002068816921F480618161206881692A6908
:1019900041EA0221816124E0206800F0D7FE20683E
:1019A000C16941F00801C1612068C16921F00401E9
:1019B000C1612068C1692A69114311E0206800F003
:1019C000F9FE2068C16941F40061C1612068C16904
:1019D00021F48061C1612068C1692A6941EA02215C
:1019E000C16184F83D60002084F83C0070BD10B5F2
:1019F000040003D094F83D0010B107E0012010BDB1
:101A0000002084F83C00204600F00CF8022084F806
:101A10003D00211D206800F0CFFD012084F83D002D
:101A2000002010BD7047704710B5044600680122C1
:101A300000F008FE08492068884202D00749884221
:101A400003D1416C41F4004141642068016841F0D8
:101A500001010160002010BD002C01400034014054
:101A60000549884207D105480268521C026009688E
:101A70006FF001000861704708030020000000209B
:101A80007047704770B5026804461068D1685369A2
:101A900010F00F0F51D003F0010501F4907635439B
:101AA0005DD0C20705D0CA0503D5E26B42F0010242
:101AB000E263420705D5DA0703D0E26B42F0020287
:101AC000E263820705D5DA0703D0E26B42F0040235
:101AD000E263020705D5DA0703D0E26B42F00802A1
:101AE000E263E26B002A34D0800604D5880602D572
:101AF000204600F0C0FE20684069E16BC0F3801012
:101B000001F008010143204624D000F0A6FE206821
:101B1000416949061AD5416921F040014161606B74
:101B2000A0B11B494163606BFEF7E8FC002810D0B0
:101B3000606B416BBDE87040084783060FD58B068C
:101B40000DD52046BDE8704000F095BE2046FFF759
:101B500098FF70BDFFF795FF0020E06370BD03069E
:101B600006D50B0604D52046BDE8704000F086BFC0
:101B70004006F3D54806F1D5D168204621F0400152
:101B8000D160202184F8391000F0A0F870BD000069
:101B90004B28000870B5040004D094F839000025E3
:101BA00010B106E0012070BD84F83850204600F0E6
:101BB00023F8242084F839002068C16821F40051FA
:101BC000C160204600F0A2FE2068016921F4904126
:101BD00001612068416921F02A0141612068C168E2
:101BE00041F40051C160E563202084F8390084F895
:101BF0003A00002070BD000030B585B0002400948C
:101C00000194029403940068184988422CD1184822
:101C1000816941F480418161816901F480410491CD
:101C2000816941F0040181618069124D00F0040076
:101C300004904FF400700090022001900320039064
:101C400069462846FEF72CFD2815CDE900046946B3
:101C500028460294FEF724FD002211462520FFF7B6
:101C6000F9F82520FFF7EAF805B030BD003801404B
:101C7000001002400008014090F83A30202B22D199
:101C8000F9B1F2B190F83830012B1CD08162828515
:101C9000C2850021C163222280F83A2080F83810E2
:101CA0000168CA6842F48072CA6001684A6942F0F9
:101CB00001024A610068C16841F02001C160002052
:101CC0007047012070470220704770477047FEE759
:101CD00001684A69D24352050CD46FF480624A61AC
:101CE00004210164002140F8301F20224273017357
:101CF00001207047002070472DE9F84F0446C06A64
:101D00001E4692460D4621680A6842F480620A60C7
:101D1000042807D0012805D010F5803F02D0206BA1
:101D2000112804D12068016841F4807101604FF0EE
:101D300001185346002241462046009600F0BDF8A7
:101D4000B8BB206908F10109B0F5804F12D0062018
:101D5000216800EAD51747F0F00008613346524683
:101D600008F10701204600F0D9F838B1206C0428AA
:101D70002FD01EE0E8B240F001001FE02168E8B279
:101D80000861334652464946204600F0C7F800280D
:101D9000ECD12068416981690091016841F480714A
:101DA00001605346002241462046009600F085F827
:101DB00010B10320BDE8F88F47F0F10021680861F9
:101DC000334652464946204600F0A8F80028CDD1B7
:101DD000F0E70120EEE70000F8B50446C06A1E46B1
:101DE0000D461746042807D0012805D010F5803F7E
:101DF00002D0206B122804D12068016841F4807160
:101E00000160134600224FF001112046009600F0B9
:101E100054F8A0B92069B0F5804F12D0062021688F
:101E200000EAD51040F0F000086133463A460E490A
:101E3000204600F073F838B1206C042811D003203C
:101E4000F8BD05F0FE0000E0E8B22168086106492F
:101E500033463A46891F204600F060F80028EBD14F
:101E6000F8BD0120F8BD00000800010070B516465D
:101E70000D4604461AE02046FFF72AFF08B101206C
:101E800070BD681C12D025B1FEF708FD801BA8426A
:101E90000CD954F8400F40F0200044F810090020FD
:101EA0002060202161732073032070BD2068406989
:101EB000C0434007DFD4002070BD2DE9F0471E4627
:101EC00090460D460446C1F30747DDF8209012E026
:101ED000701C10D02EB1FEF7E1FCA0EB0900B0425F
:101EE00009D9002044F8300F20216173A0732073BA
:101EF0000320BDE8F0872068012F0AD0806925EA19
:101F000000000004000C06D000214145E0D0002074
:101F1000EFE74069F3E70121F7E700002DE9F0471B
:101F20009A4691460D46044600264FF02008C1F31C
:101F300007472AE020684069C043400512D4206862
:101F4000016841F40071016021686FF480604861AC
:101F500004202064266384F83D8084F83C600120DE
:101F6000BDE8F087B9F1FF3F0FD0B9F1000F05D000
:101F7000FEF794FCA0EB0A01494506D944F8306FFE
:101F800084F80D8026730320EAE72068012F07D02C
:101F9000D0F8180025EA00000004000CE0D0C9E7E2
:101FA0004069F7E72DE9F041002590460E460446CA
:101FB000202721E04069C043C0060CD421686FF09F
:101FC000100048612564256384F83D7084F83C5016
:101FD0000120BDE8F0812EB1FEF760FCA0EB080007
:101FE000B04209D954F8400F40F0200044F80409E9
:101FF000677025700320ECE720684169C9434906F2
:10200000D8D40020E5E770B516460D4604461AE020
:102010002046FFF75DFE08B1012070BD681C12D09C
:1020200025B1FEF73BFC801BA8420CD954F8400FA9
:1020300040F0200044F81009002020602021617346
:102040002073032070BD20684069C0430006DFD4C0
:10205000002070BD10B580216B2000F0BDF8642019
:10206000FEF7E4FA00216B2000F0B6F801211A20F7
:1020700000F0B2F818211B2000F0AEF800211B2060
:1020800000F0AAF84021BDE81040192000F0A4B8E3
:10209000F0B585B00C46054601A903A800F038F854
:1020A000BDF90C00FEF74CF9184E31680F46FEF7EB
:1020B000D7F82860BDF90E00FEF742F93946FEF761
:1020C000CFF86860BDF91000FEF73AF93946FEF71F
:1020D000C7F8A860BDF90400FEF732F971680D4633
:1020E000FEF7BEF82060BDF90600FEF729F9294683
:1020F000FEF7B6F86060BDF90800FEF721F9294641
:10210000FEF7AEF8A06005B0F0BD000004000020AE
:1021100030B585B00C46054601223A200DF101018B
:1021200000F042F89DF80100002833D0062201A9F2
:102130003B2000F039F8062203A9432000F034F8D0
:102140009DF805009DF8041000EB012028809DF803
:1021500007009DF8061000EB012068809DF809003B
:102160009DF8081000EB0120A8809DF80D009DF857
:102170000C1000EB012020809DF80F009DF80E1040
:1021800000EB012060809DF811009DF8101000EB1D
:102190000120A08005B030BD014654220148FDF762
:1021A000E3BF0000340100207CB514468DF8040024
:1021B0000A200D460090012301AAD0210548FEF710
:1021C0001BFD6420009023462A46D0210148FEF7DB
:1021D0000BFC7CBD340100201CB502238DF80400EB
:1021E00064208DF80510009001AAD0210148FEF767
:1021F00003FD1CBD34010020F0B585B0002431483A
:102200000094019402940394816941F0100181616A
:10221000816901F010010491816941F0040181613B
:10222000816901F004010491816941F00801816133
:10223000816901F008010491816941F040018161E7
:10224000816901F040010491816941F020018161BF
:1022500080691D4F00F020000490002240F6230109
:102260003846FEF716FB012518480095CDE9010414
:1022700069461748FEF714FA23200226CDE9000527
:10228000CDE9024669463846FEF70AFAA802CDE9CA
:102290000004694638460294FEF702FAE8028DE827
:1022A00061000320039069463846FEF7F9F90222DF
:1022B00000210620FEF7CEFD0620FEF7BFFD05B08B
:1022C000F0BD000000100240000C014000001110A1
:1022D0000008014010B594B000240E940F9410949F
:1022E000119412941C2168461394FDF756FF1C218B
:1022F00007A8FDF752FF1F481D4901604721C0E9AB
:10230000011440F69F71C0E9031444618461FFF732
:10231000CCF84FF480500E900EA91648FFF75FF9E5
:102320001448FFF764FB129412A912481394FFF7A4
:1023300094F86020CDE90004029403940494059479
:10234000002269460B480694FFF7E9FA07940894BF
:1023500009944FF400500A94CDE90B4007A90548B1
:102360000D94FFF74DF80348FFF766FA14B010BD5F
:10237000002C01400802002010B58EB00024079404
:10238000089409940A940B941C2168460C94FDF758
:1023900004FF16484FF0804101604721C0E9011455
:1023A00040F69F71C0E903148461FFF77EF84FF493
:1023B0008050079007A90D48FFF711F90B48FFF768
:1023C00016FB0B940BA909480C94FFF746F8602004
:1023D000CDE9000402940822694604480494FFF7FA
:1023E0009EFA0248FFF728FA0EB010BD48020020FE
:1023F00010B58EB000240794089409940A940B94A5
:102400001C2168460C94FDF7C8FE17481549016069
:102410004721C0E9011440F69F71C0E903148461AB
:10242000FFF743F84FF48050079007A90E48FFF7D5
:10243000D6F80D48FFF7DBFA0B940BA90A480C9469
:10244000FFF70BF86020CDE90004029400226946F2
:1024500005480494FFF763FA0348FFF7EDF90EB05F
:1024600010BD0000000400408802002010B58EB0AE
:1024700000240794089409940A940B941C2168463C
:102480000C94FDF78AFE1748154901604721C0E901
:10249000011440F69F71C0E903148461FFF705F849
:1024A0004FF48050079007A90E48FFF798F80D48A1
:1024B000FFF79DFA0B940BA90A480C94FEF7CDFF89
:1024C0006020CDE900040294042269460548049482
:1024D000FFF725FA0348FFF7AFF90EB010BD000073
:1024E00000080040C8020020FEE770470907090EF7
:1024F000002806DA00F00F0000F1E02080F8141D3B
:10250000704700F1E02080F8001470477047704772
:10251000FEF73CBC30B58FB028216846FDF73DFE84
:1025200014210AA8FDF739FE01210804CDE90010A5
:102530000024029402250491CDE907504FF4E010E5
:1025400009906846FEF7C4FD0F20CDE90A05680230
:10255000CDE90C4002210AA80E94FEF7ADFC0FB0A5
:1025600030BD00000D48016841F001010160416883
:102570000B4A1140416001680A4A1140016001683C
:1025800021F480210160416821F4FE0141604FF493
:102590001F0181600449C0030860704700100240B9
:1025A0000000FFF8FFFFF6FE08ED00E00148FFF72E
:1025B00090B8000008030020F0B502681C4B1D4DC8
:1025C0001D4E1E4F1E4C4FF0804C984209D0A04229
:1025D00007D0604505D0A84203D0B04201D0B84230
:1025E00004D122F0700E4A6842EA0E02984209D0E5
:1025F000A04207D0604505D0A84203D0B04201D028
:10260000B84203D122F44075CA682A4322F08005FB
:102610004A692A4302608A68C2620A6882629842F2
:1026200001D0A04201D10969016301214161F0BDDE
:10263000002C01400004004000080040000C004055
:102640000034014010B50123046A8B409C430462AE
:10265000036A8A401343036210BD10B5846842EADE
:10266000032224F47F440A432243826010BD82681F
:1026700022F070020A4342F00701816070470000B7
:10268000F0B5026A22F001020262036A42688469BC
:10269000124E24F073050C682C4323F002058B685E
:1026A0002B430D4DA84201D0B04205D123F00807BD
:1026B000CB683B4323F00403A84201D0B04205D1CC
:1026C0004D6922F4407215438A692A43426084614D
:1026D000496841630362F0BD002C014000340140B1
:1026E000F0B5026A22F010020262026A436884694D
:1026F0000D6824F4E64444EA05248D6822F02002A3
:1027000042EA05120F4D104EA84201D0B04206D148
:10271000CF6822F0800242EA071222F04002A8426B
:1027200001D0B04207D14D6923F4406343EA8503E9
:102730008D6943EA8503436084614968816302626D
:10274000F0BD0000002C014000340140F0B5026AE9
:1027500022F480720262026A4368C46922F4007241
:1027600024F073050C68124E2C438D6842EA052252
:102770000E4DA84201D0B04206D1CF6822F40062CB
:1027800042EA072222F48062A84201D0B04207D177
:102790004D6923F4405343EA05138D6943EA051359
:1027A0004360C4614968C1630262F0BD002C01400E
:1027B0000034014030B5026A22F480520262046A99
:1027C0004268C3690D6823F4E64343EA05238D6834
:1027D00024F4005444EA0534084DA84202D0084DC0
:1027E000A84204D14D6922F4804242EA8512426037
:1027F000C36149680164046230BD0000002C0140DF
:102800000034014010B5036A046A24F00104046234
:10281000846924F0F00444EA021423F00A020A4313
:102820008461026210BD10B5036A23F010030362D5
:102830008369046A23F4704343EA023224F0A0035C
:1028400043EA01118261016210BD10B5406A0021A6
:10285000C185C184FFF715F910BD0168CA6822F46B
:102860009072CA6001684A6922F001024A6120211F
:1028700080F83A10704710B590F83A10222901D02C
:10288000022010BD8168B1F5805F11D00169002977
:1028900001681FD0496801F07F03816A4A1C826287
:1028A0000B70C18D491E0904090CC18518D02BE09D
:1028B0000269816A002A0268526805D0D2B20A8091
:1028C000816A491C8162ECE7C2F308020A80816ACE
:1028D000891CF7E74A68816A4B1C83620A70E0E74B
:1028E0000168CA6822F02002CA600168CA6822F43E
:1028F0008072CA6001684A6922F001024A6120219F
:1029000080F83A10FFF7E1F9002010BD2DE9F04101
:10291000044600680169E26821F4405111430161F5
:102920002169A0680843616908432168CA6841F2C7
:102930000C639A430243CA6020684169A26921F48A
:102940004071114341614C49206864253226884218
:102950003CD1FEF777FB00EBC00101EB0010616892
:102960008900B0FBF1F7FEF76DFB00EBC00101EB56
:1029700000106168B0468900B0FBF1F0B0FBF5F0E3
:102980006FF01801484307EB800106EB0110B0FB24
:10299000F5F000F0F006FEF755FB00EBC00101EB8F
:1029A000001061688900B0FBF1F0B0FBF5F006EBB8
:1029B0000016FEF747FB00EBC00101EB0010616859
:1029C0008900B0FBF1F7FEF73DFB3BE0FEF72AFB89
:1029D00000EBC00101EB001061688900B0FBF1F76A
:1029E000FEF720FB00EBC00101EB00106168B04670
:1029F0008900B0FBF1F0B0FBF5F06FF0180148432F
:102A000007EB800106EB0110B0FBF5F000F0F006DB
:102A1000FEF708FB00EBC00101EB001061688900C4
:102A2000B0FBF1F0B0FBF5F006EB0016FEF7FAFA9A
:102A300000EBC00101EB001061688900B0FBF1F709
:102A4000FEF7F0FA00EBC00101EB001061688900AD
:102A5000B0FBF1F0B0FBF5F06FF01801484307EB65
:102A6000800108EB0110B0FBF5F0216800F00F00C9
:102A700030448860BDE8F0810038014090F839109A
:102A8000212901D0022070478168B1F5805F016A79
:102A90000BD04A1C0262026809785160C18C491E41
:102AA0000904090CC1840ED017E009880268C1F33B
:102AB0000801516001690029016A02D0491C0162C4
:102AC000ECE7891CFBE70168CA6822F08002CA6053
:102AD0000068C16841F04001C160002070470000FB
:102AE00010B50548FEF7CEFFBDE810401922034996
:102AF0000148FFF7C1B800004803002098010020FA
:102B0000FEE702E008C8121F08C1002AFAD1704788
:102B10007047002001E001C1121F002AFBD170475D
:102B20000148FEF746BD0000080300201CB5FEF773
:102B300035F9FFF7EFFCFFF75FFB60485E49604D3A
:102B400001600024C0E901540914C0E90341446153
:102B50008461C4610462FDF7A7FEFFF7BBFBFFF7CA
:102B60000BFCFFF745FCFFF781FC574800945549E3
:102B7000019401604721C0E9011440F2E73184610A
:102B8000C160FEF792FC009469464F480194FEF73D
:102B900064FC4D484D494030C0E900158914C0E936
:102BA0000214891001610C21C0E90514C461FEF70B
:102BB000F1FF4248FFF7F0FAFFF74CFA4248FEF700
:102BC000ECFCFFF7ADFF4048192241494030FFF7C8
:102BD00053F83D4B403BA3F14002A2F14001A1F16B
:102BE000400000F07DF83B4DDFF8EC903B4C4FF49B
:102BF0008C674FF4C8683749354800F0F9F8324916
:102C00008C31A1F10C00FFF743FAFDF71FFC606067
:102C10002888A0F5D77090FBF7F0FDF791FBA06036
:102C20006888A0F5D77090FBF7F0FDF789FBE060AE
:102C3000A888C83890FBF8F0FDF782FB06462061B3
:102C4000E888A0F5D77090FBF7F0FDF779FB60619D
:102C5000207810B1012817D026E033461A461146D5
:102C6000084600F06FF8012211464E464846FDF72F
:102C700010FE012202213046FDF70BFE002220212A
:102C80003046FDF706FEB6E7002201214E464846D3
:102C9000FDF7FFFD012202213046FDF7FAFD01227A
:102CA00020213046FDF7F5FD23691846024601460E
:102CB00000F048F89FE7000000540040B4010020F5
:102CC000A0860100001000400803002000380140E9
:102CD0009801002088010020000C01400C00002019
:102CE00070B50C46164601461D4640221448FDF7B5
:102CF0003BFA1348402221464030FDF735FA104890
:102D0000402231468030FDF72FFA0D4840222946F7
:102D1000C030FDF729FA00210948FEF785FE084872
:102D200008214030FEF780FE054800218030FEF784
:102D30007BFEBDE8704002480421C030FEF774BE3F
:102D4000340000202DE9F0471E4F0C469A4691466C
:102D50003946FDF785FADFF870804146FDF7B2FA93
:102D6000FDF7FCFA86B239462046FDF779FA41466E
:102D7000FDF7A8FAFDF7F2FA85B239464846FDF7A5
:102D80006FFA4146FDF79EFAFDF7E8FA84B239463C
:102D90005046FDF765FA4146FDF794FAFDF7DEFA75
:102DA0000A4980B209684E63084940310968CD6319
:102DB0000649803109684C630449C0310968886359
:102DC000BDE8F08700007A450000C84234000020CA
:102DD00010B50448002444620348FEF7D1FB0348C1
:102DE000046010BD00100040080300200000002017
:102DF000C27D002A40D1B0F80120C2F30A020A8045
:102E00008278C378D20842EA4312C2F30A024A80A7
:102E1000C2780379920942EA8302437942EA832223
:102E2000C2F30A028A8042798379520842EAC312C5
:102E3000C2F30A02CA808279C379120942EA0312F4
:102E4000C2F30A020A81C279037AD20942EA430232
:102E5000437A42EA4322C2F30A024A81427A837ADF
:102E6000920842EA8312C2F30A028A81827AC07A05
:102E7000520942EAC000C88170470000000000000B
:102E80000000010203040607080900000000010217
:102E900003040000B42E00080000002034000000ED
:102EA000022B0008E82E0008340000206C07000008
:102EB000122B00080000000000007A3D0000FA3BE1
:102EC0000000000000000000000000000000000002
:102ED00000000000000000000100000010000000E1
:082EE0000000000000A24A04FA
:0400000508000131BD
:00000001FF
